S01700004763634170706C69636174696F6E322E737265635A
S113000045C0000060C000005EC000005CC000008D
S11300105AC0000058C0000056C0000054C0000080
S113002052C0000050C000004EC000004CC0000090
S11300304AC0000048C0000046C0000044C00000A0
S113004042C0000040C000003EC000003CC00000B0
S11300503AC0000038C0000036C0000034C00000C0
S113006032C0000030C000002EC000002CC00000D0
S11300702AC0000028C0000026C0000024C00000E0
S113008022C0000020C000001EC0000011241FBEBA
S1130090CFEFD0E1DEBFCDBF11E0A0E0B1E0EAEBED
S11300A0F7E000E00BBF02C007900D92A030B1074B
S11300B0D9F721E0A0E0B1E001C01D92A232B2075D
S11300C0E1F7C5D078C39CCFAA98AB9A95B39F703B
S11300D095BB95B3282F207F922B95BBE3ECF9E0D9
S11300E03197F1F700C00000AB98E3ECF9E03197E9
S11300F0F1F700C00000AB9A95B39F7095BB25B390
S1130100F0E18F9FC0011124822B85BB83EC99E021
S11301100197F1F700C00000AB98E3ECF9E03197E8
S1130120F1F700C00000089595B39C6095BB95B3AA
S11301309F7095BB95B3282F207F922B95BB36EAF1
S11301403A95F1F700C0AB9896EA9A95F1F700C09A
S1130150AB9A95B39F7095BB25B330E1839FC001E3
S11301601124822B85BB86EA8A95F1F700C0AB98EF
S113017096EA9A95F1F700C0089581E0A5DF83EC33
S113018099E00197F1F700C00000089583E39CDF34
S113019087EA91E60197F1F700C0000082E394DF5B
S11301A083ED90E30197F1F700C0000088E28CDF53
S11301B083ED90E30197F1F700C0000088E084DF4D
S11301C083ED90E30197F1F700C00000D6DF86E0ED
S11301D07BDF8CE079CF089590E4699F800D112432
S11301E0806872CF0895CF93DF93EA01F5DF8881A9
S11301F0882329F0219698DF89918111FCCFDF9122
S1130200CF910895806487B987EA91E60197F1F761
S113021000C00000369A349BFECF349A84B195B165
S11302200895E1E6F0E0908121E030E0082E02C07C
S1130230220F331F0A94E2F720952923208397B1D4
S11302409066892B87B986B1876E86B90895CF9356
S1130250DF9300D000D0CDB7DEB72FEF24BB15BAA3
S113026095DFF8941ABA1BBA8FEF81BB12BA83E0F8
S1130270D8DF78940F2EFEE1CF2EF02D312C882478
S113028083940F2E44244A94F3E05F2EF02D992496
S11302909394212C6894DD24D5F80F2EFAE06F2E68
S11302A0712CF02D00E011E083E0ACDF5C01720101
S11302B0E81AF90AB7010F2C000C880B990BC8D166
S11302C069837A838B839C83C89B02C0392C822CDC
S11302D0C99B02C0322C892CCA99C394CB99CA9465
S11302E0882009F43BC0B501BB0C880B990BB0D135
S11302F02DEC3CEC4CE251E410D19B01AC0160E0EC
S113030070E086EE92E4A4D070D19B0184E5E1E133
S1130310F1E0808395E490931201EDE4E0931301FE
S1130320F0E5F0931401D09215018DE3809316014A
S1130330D0921701C90164E670E016D2605D609343
S11303401801C901B30110D2282FCB01B3010CD27B
S1130350805D80931901205D20931A013320F1F10F
S113036085E5E1E1F1E0808383E580931201F4E522
S1130370F0931301D09214012DE320931501D09230
S1130380160189E2C89E812D112482958F70805DAB
S1130390809317018DECC89E912D11249695969506
S11303A09695989F812D1124869586958695880F1C
S11303B0282F220F220F820FE92FE81B8E2F805D3A
S11303C080931801990F892F880F880F980F8C2D0F
S11303D0891B805D80931901D0921A01F801D082A3
S11303E020E030E04AE754E469817A818B819C8182
S11303F094D020E030E040E452E42BD0FBD0F8016C
S11304006183C70164E670E0AFD1CB01B301ACD125
S1130410805D8283C701B301A7D1282FCB01B3012B
S1130420A3D1805D8383205D248341E151E0622D6B
S1130430892DD9DEA801692D822DD5DEFFE32DE0BB
S113044083E0F15020408040E1F700C000002CCF51
S11304505058BB27AA270ED04DC13ED130F043D10E
S113046020F031F49F3F11F41EF433C10EF4E095F3
S1130470E7FB29C1E92F4FD180F3BA17620773074D
S11304808407950718F071F49EF567C10EF4E095A2
S11304900B2EBA2FA02D0B01B90190010C01CA013A
S11304A0A0011124FF27591B99F0593F50F4503EE5
S11304B068F11A16F040A22F232F342F4427585FD7
S11304C0F3CF469537952795A795F0405395C9F7EF
S11304D07EF41F16BA0B620B730B840BBAF09150A7
S11304E0A1F0FF0FBB1F661F771F881FC2F70EC046
S11304F0BA0F621F731F841F48F487957795679519
S1130500B795F7959E3F08F0B3CF9395880F08F001
S11305109927EE0F9795879508950CD0EBC0E3D0FB
S113052040F0DAD030F021F45F3F19F0CCC0511123
S113053015C1CFC0F0D098F39923C9F35523B1F373
S1130540951B550BBB27AA2762177307840738F03E
S11305509F5F5F4F220F331F441FAA1FA9F333D09D
S11305600E2E3AF0E0E830D091505040E695001C51
S1130570CAF729D0FE2F27D0660F771F881FBB1F0D
S1130580261737074807AB07B0E809F0BB0B802DE7
S1130590BF01FF2793585F4F2AF09E3F510568F033
S11305A092C0DCC05F3FECF3983EDCF38695779510
S11305B06795B795F7959F5FC9F7880F911D969535
S11305C0879597F90895E1E0660F771F881FBB1F91
S11305D0621773078407BA0720F0621B730B840B3E
S11305E0BA0BEE1F88F7E095089504D06894B11112
S11305F0B5C0089598D088F09F5790F0B92F9927E7
S1130600B751A0F0D1F0660F771F881F991F1AF019
S1130610BA95C9F712C0B13081F09FD0B1E0089506
S11306209CC0672F782F8827B85F39F0B93FCCF387
S1130630869577956795B395D9F73EF4909580950F
S1130640709561957F4F8F4F9F4F0895E89409C02F
S113065097FB3EF490958095709561957F4F8F4FF1
S11306609F4F9923A9F0F92F96E9BB279395F69507
S1130670879577956795B795F111F8CFFAF4BB0F85
S113068011F460FF1BC06F5F7F4F8F4F9F4F16C0E9
S1130690882311F096E911C0772321F09EE8872F73
S11306A0762F05C0662371F096E8862F70E060E02F
S11306B02AF09A95660F771F881FDAF7880F9695A8
S11306C0879597F9089597F99F6780E870E060E04F
S11306D008959FEF80EC089500240A9416161706D7
S11306E018060906089500240A941216130614061F
S11306F005060895092E0394000C11F4882352F082
S1130700BB0F40F4BF2B11F460FF04C06F5F7F4F39
S11307108F4F9F4F089557FD9058440F551F59F020
S11307205F3F71F04795880F97FB991F61F09F3FDA
S113073079F087950895121613061406551FF2CF03
S11307404695F1DF08C0161617061806991FF1CF53
S113075086957105610508940895E894BB2766277A
S11307607727CB0197F9089597FB072E16F4009489
S113077006D077FD08D00BD007FC05D03EF4909549
S113078081959F4F0895709561957F4F0895AA1B99
S1130790BB1B51E107C0AA1FBB1FA617B70710F068
S11307A0A61BB70B881F991F5A95A9F7809590959A
S10D07B0BC01CD010895F894FFCFB9
S9030000FC
