S01700004763634170706C69636174696F6E322E737265635A
S113000086C00000A1C000009FC000009DC0000089
S11300109BC0000099C0000097C0000095C000007C
S113002093C0000091C000008FC000008DC000008C
S11300308BC0000089C0000087C0000085C000009C
S113004083C0000081C000007FC000007DC00000AC
S11300507BC0000079C0000077C0000075C00000BC
S113006073C0000071C000006FC000006DC00000CC
S11300706BC0000069C0000067C0000065C00000DC
S113008063C0000061C000005FC000000763423627
S1130090B79BD8A71A39685618AEBAAB558C1D3C15
S11300A0B7CC5763BD6DEDFD753EF6177231BF00D9
S11300B00000803F08000000BE922449123EABAA13
S11300C0AA2ABECDCCCC4C3E00000080BEABAAAA6E
S11300D0AA3E00000000BF000000803F00000000B6
S11300E000084178D3BB4387D1133D190E3CC3BDEF
S11300F04282AD2B3E68EC8276BED98FE1A93E4C9C
S113010080EFFFBE01C4FF7F3F0000000000112408
S11301101FBECFEFD0E1DEBFCDBF11E0A0E0B1E064
S1130120E4E4FCE000E00BBF02C007900D92A030B5
S1130130B107D9F721E0A0E0B1E001C01D92A232DD
S1130140B207E1F7C5D07CC55BCFAA98AB9A95B34B
S11301509F7095BB95B3282F207F922B95BBE3EC22
S1130160F9E03197F1F700C00000AB98E3ECF9E057
S11301703197F1F700C00000AB9A95B39F7095BB1F
S113018025B3F0E18F9FC0011124822B85BB83EC42
S113019099E00197F1F700C00000AB98E3ECF9E0B7
S11301A03197F1F700C00000089595B39C6095BBAA
S11301B095B39F7095BB95B3282F207F922B95BB49
S11301C036EA3A95F1F700C0AB9896EA9A95F1F7BA
S11301D000C0AB9A95B39F7095BB25B330E1839F64
S11301E0C0011124822B85BB86EA8A95F1F700C0F1
S11301F0AB9896EA9A95F1F700C0089581E0A5DFDF
S113020083EC99E00197F1F700C00000089583E3BF
S11302109CDF87EA91E60197F1F700C0000082E3D2
S113022094DF83ED90E30197F1F700C0000088E2CA
S11302308CDF83ED90E30197F1F700C0000088E0C4
S113024084DF83ED90E30197F1F700C00000D6DF6F
S113025086E07BDF8CE079CF089590E4699F800D80
S11302601124806872CF0895CF93DF93EA01F5DFFC
S11302708881882329F0219698DF89918111FCCF08
S1130280DF91CF910895806487B987EA91E6019759
S1130290F1F700C00000369A349BFECF349A84B143
S11302A095B10895E1E6F0E0908121E030E0082E78
S11302B002C0220F331F0A94E2F7209529232083DA
S11302C097B19066892B87B986B1876E86B90895F0
S11302D0CF93DF93CDB7DEB728970FB6F894DEBF80
S11302E00FBECDBF2FEF24BB15BA91DFF8941ABA15
S11302F01BBA8FEF81BB12BA83E0D4DF78940F2E40
S1130300FEE13F2EF02D812C992493940F2EAA24E4
S1130310AA94F3E0BF2EF02D44244394512C01E120
S113032011E06894222425F883E0ADDF3501681AD2
S1130330790AB301072C000C880B990B06D26B01C8
S11303407C0120E030E040E850E4EED269837A8317
S11303508B839C8320E030E040E450E4C701B60185
S1130360E3D26D837E838F839887C89B02C0842CDD
S1130370952CC99B02C0852C942CCA993394CB9993
S11303803A94992009F46BC023ED35E346EE52E329
S113039069817A818B819C8164D269837A838B831E
S11303A09C8325E835E74AE458E36D817E818F819B
S11303B0988557D29B01AC0169817A818B819C819C
S11303C0C4D069837A838B839C83A7019601C70178
S11303D0B60147D224E736EB40E05DE342D29B010D
S11303E0AC0169817A818B819C81B0D069837A83E5
S11303F08B839C8328E839E746E051E4C701B601C2
S113040030D29B01AC0169817A818B819C819DD022
S11304102FE335E648E454E499D064D19B0184E5A4
S1130420F801808395E491838DE4828390E593833E
S113043024828DE385832682C90164E670E0D9D3E2
S1130440605D6783C9016AE070E0D3D3282FCB01D4
S11304506AE070E0CED3805D8087205D21878820AC
S1130460A9F185E5F801808383E5818324E522836E
S113047023828DE38483258289E2389E812D112491
S113048082958F70805D86838DEC389E912D11242A
S1130490969596959695989F812D11248695869587
S11304A08695880F282F220F220F820FE92FE81B31
S11304B08E2F805DF8018783990F892F880F880F0D
S11304C0980F832D891B805D80872186E0E0F1E011
S11304D0208220E030E04AE754E4C701B6019AD014
S11304E020E030E040E452E431D001D160930101D6
S11304F0C30164E670E07DD3CB016AE070E079D398
S1130500805D80930201C3016AE070E072D3282FFA
S1130510CB016AE070E06DD3805D80930301205DC0
S113052020930401A801652D842D9EDE40E051E056
S1130530642D852D99DEFFE32DE083E0F15020400A
S11305408040E1F700C00000EFCE5058BB27AA2737
S11305500ED04DC13ED130F043D120F031F49F3F55
S113056011F41EF433C10EF4E095E7FB29C1E92F21
S11305704FD180F3BA17620773078407950718F001
S113058071F49EF567C10EF4E0950B2EBA2FA02DE1
S11305900B01B90190010C01CA01A0011124FF272C
S11305A0591B99F0593F50F4503E68F11A16F04027
S11305B0A22F232F342F4427585FF3CF4695379526
S11305C02795A795F0405395C9F77EF41F16BA0BEB
S11305D0620B730B840BBAF09150A1F0FF0FBB1F99
S11305E0661F771F881FC2F70EC0BA0F621F731FE2
S11305F0841F48F4879577956795B795F7959E3F3F
S113060008F0B3CF9395880F08F09927EE0F9795CC
S1130610879508950CD0EBC0E3D040F0DAD030F0E9
S113062021F45F3F19F0CCC0511115C1CFC0F0D0F7
S113063098F39923C9F35523B1F3951B550BBB27A5
S1130640AA2762177307840738F09F5F5F4F220F52
S1130650331F441FAA1FA9F333D00E2E3AF0E0E84B
S113066030D091505040E695001CCAF729D0FE2F97
S113067027D0660F771F881FBB1F26173707480729
S1130680AB07B0E809F0BB0B802DBF01FF279358DF
S11306905F4F2AF09E3F510568F092C0DCC05F3F77
S11306A0ECF3983EDCF3869577956795B795F795C7
S11306B09F5FC9F7880F911D9695879597F90895BF
S11306C0E1E0660F771F881FBB1F6217730784075B
S11306D0BA0720F0621B730B840BBA0BEE1F88F76A
S11306E0E095089504D06894B111B5C0089598D0E8
S11306F088F09F5790F0B92F9927B751A0F0D1F007
S1130700660F771F881F991F1AF0BA95C9F712C090
S1130710B13081F09FD0B1E008959CC0672F782F4D
S11307208827B85F39F0B93FCCF3869577956795FC
S1130730B395D9F73EF490958095709561957F4F68
S11307408F4F9F4F0895E89409C097FB3EF490950E
S11307508095709561957F4F8F4F9F4F9923A9F096
S1130760F92F96E9BB279395F69587957795679525
S1130770B795F111F8CFFAF4BB0F11F460FF1BC069
S11307806F5F7F4F8F4F9F4F16C0882311F096E9FC
S113079011C0772321F09EE8872F762F05C06623AA
S11307A071F096E8862F70E060E02AF09A95660F63
S11307B0771F881FDAF7880F9695879597F908951C
S11307C097F99F6780E870E060E008959FEF80EC00
S11307D0089500240A9416161706180609060895A3
S11307E000240A9412161306140605060895092E09
S11307F00394000C11F4882352F0BB0F40F4BF2B78
S113080011F460FF04C06F5F7F4F8F4F9F4F0895B7
S113081057FD9058440F551F59F05F3F71F04795AD
S1130820880F97FB991F61F09F3F79F08795089592
S1130830121613061406551FF2CF4695F1DF08C0B1
S1130840161617061806991FF1CF869571056105CE
S113085008940895E894BB2766277727CB0197F976
S113086008950BD0C4CFB5DF28F0BADF18F0952374
S113087009F0A6CFABCF1124EECFCADFA0F3959F2A
S1130880D1F3950F50E0551F629FF001729FBB2773
S1130890F00DB11D639FAA27F00DB11DAA1F649F1F
S11308A06627B00DA11D661F829F2227B00DA11DD2
S11308B0621F739FB00DA11D621F839FA00D611D58
S11308C0221F749F3327A00D611D231F849F600D79
S11308D0211D822F762F6A2F11249F5750408AF0B2
S11308E0E1F088234AF0EE0FFF1FBB1F661F771F3E
S11308F0881F91505040A9F79E3F510570F060CF7A
S1130900AACF5F3FECF3983EDCF386957795679525
S1130910B795F795E7959F5FC1F7FE2B880F911D5B
S11309209695879597F90895FA01EE0FFF1F309673
S11309302105310599F16115710561F48038BFE332
S11309409B0749F168949038810561F08038BFEFC6
S11309509B0741F0992342F5FF3FE105310521054D
S113096011F1E8940894E795D901AA2329F4AB2F4F
S1130970BE2FF85FD0F310C0FF5F70F4A695E0F7C8
S1130980F73950F019F0FF3A38F49F779F930CD061
S11309900F9007FC905808953EF018CF60E070E087
S11309A080E89FE308954FE79F775F934F933F93CA
S11309B02F939ED02F913F914F915F9152DF05C0AD
S11309C019F40EF0FDCE46CF01CF2ADFC8F39638D6
S11309D0C0F707F80F92E8942BE33AEA48EB5FE795
S11309E04EDF0F920F920F924DB75EB70F92C0D0A9
S11309F0ECE8F0E016D04F915F91EF91FF91E5950F
S1130A00EE1FFF1F49F0FE57E0684427EE0F441F16
S1130A10FA95E1F74195550B32D00F9007FE26C0A9
S1130A200895DF93CF931F930F93FF92EF92DF927A
S1130A307B018C01689405C0DA2EEF011EDFFE01F4
S1130A40E894A5912591359145915591AEF3EF0127
S1130A508EDDFE019701A801DA9479F7DF90EF901B
S1130A60FF900F911F91CF91DF9108959B01AC01ED
S1130A7060E070E080E89FE3CDCDA2CEACC0D0DED4
S1130A80E8F39923D9F3940F511DBBF391505040CF
S1130A9094F059F0882332F0660F771F881F915025
S1130AA05040C1F79E3F510544F7880F911D96951C
S1130AB0879597F908955F3FACF0983E9CF0BB276B
S1130AC0869577956795B79508F4B1609395C1F7C6
S1130AD0BB0F58F711F460FFE8CF6F5F7F4F8F4F64
S1130AE09F4FE3CFB8CE0EF076C070CE689468CE38
S1130AF097DEC8F39923D1F3C6F3DF93CF931F9303
S1130B000F93FF92C92FDD2788232AF02197660FC0
S1130B10771F881FDAF720E030E040E85FEB9FE3BF
S1130B20883920F0803E30F021968F770FDDE4EB9A
S1130B30F0E003C00BDDE1EEF0E073DF8B01BE01FA
S1130B40EC01FB2E6F5771097595771F880B990B74
S1130B50FCDD28E132E741E35FE38FDEAF2D98014E
S1130B60AE01FF900F911F91CF91DF9100DD3FCE39
S1130B70FA01DC01AA0FBB1F9B01AC01BF5728F48B
S1130B8022273327442750781FC0B75188F4AB2F4E
S1130B900024469537952795011CA395D2F3002090
S1130BA069F0220F331F441FB395DAF30DD0CDCC77
S1130BB061307105A0E88A07B94630F49B01AC01A5
S1130BC06627772788279078309621F02083318311
S1130BD04283538308959F3F31F0915020F48795C9
S1130BE077956795B795880F911D9695879597F991
S1130BF0089597FB072E16F4009406D077FD08D0CD
S1130C000BD007FC05D03EF4909581959F4F089535
S1130C10709561957F4F0895AA1BBB1B51E107C0D6
S1130C20AA1FBB1FA617B70710F0A61BB70B881F78
S1130C30991F5A95A9F780959095BC01CD01089507
S1070C40F894FFCF52
S9030000FC
